:1012D600D3EF9400EE940040147D6E7C00ED1D70FB
:0D12E600011CED4C70F7EF1F70E61E80E359
:0112F30022D8
:1012AE00C2B77B46AF031BEF70FAD2B7FB30B71550
:1012BE007F017E001212D60BEBD3940574809480BE
:0712CE0040EB7F00227F01CD
:0112D50022F6
:0C1204001212AE7F017E001212D67FCCC9
:10121000E4FBFAC2B7052BE52B7002052AEF139207
:10122000B7752A00752B06E52B152BAC2A70021515
:101230002A4C70F3D2B7EFC313FF0BBB00010AEBCC
:0512400064084A70CEB5
:011245002286
:101246007D087C00C2B70FBF0000D2B70FBF0000F9
:101256000FBF0000A2B7E433C43333335480FBE935
:10126600C3134BF97E007F04EF1FAA0670011E4AC6
:0D12760070F6ED1D70011CED4C70C9AF014C
:011283002248
:08133A001212047F440212109C
:081342001212047FBE0212101A
:10000300E4FFFE12133A1213421212468F29121200
:0600130046EFFEE529FFA7
:0100190022C4
:10128400003F0006005B004F0066006D007D000714
:10129400007F006F008000400000000C000C000C78
:0A12A400000C000C000C000C000C04
:04131F007FE87E03E2
:0B132300EF1FAC0670011E4C70F6229C
:041159008E298F2A22
:10115D00C3E529648094805010E52A152A70021584
:10116D0029632AFF6329FF8000AC29AD2AEC120305
:10117D004B8F2E8E2D8D2C8C2BE4FFFE7DC87C404D
:10118D00AB2EAA2DA92CA82B1201161203848E2981
:10119D008F2AAC29AD2AEC12034BE4FBFA79C878FF
:1011AD004212021FC3E52964809480500312033557
:0111BD00220F
:080C54008F2C8E2B8D2A8C29B8
:100C5C00752E01752FF4E4FFFEFDFCAB2CAA2BA91D
:100C6C002AA8291202BC502190129AE493F53074F0
:100C7C000193F531AF2CAE2BAD2AAC291203358F75
:100C8C002C8E2B8D2A8C29800C90129CE493F530A1
:100C9C00740193F531AF2CAE2BAD2AAC2912038421
:100CAC00AB07AA067C007D0A120574EF25E0FFEE67
:100CBC0033FE74842FF58274123EF583E493F5327F
:100CCC00740193F5337C007D0AAF03AE02120574F8
:100CDC00ED25E0FFEC33FE74842FF58274123EF5A3
:100CEC0083E493F5347401934480F535E4FFFE7D81
:100CFC00207C41AB2CAA2BA92AA82912011612037D
:100D0C00847C007D0A120574ED25E0FFEC33FE7443
:100D1C00842FF58274123EF583E493F536740193B7
:100D2C00F537E52F152FAE2E7002152E4E604CE4C4
:100D3C00F52DC3E52D94047480948050E5E52D14B5
:100D4C00600E14601314601424037016C2A2800287
:100D5C00D2A2C2A3C2A4800AC2A28002D2A2D2A3EF
:100D6C00C2A4E52D25E02430F808E6F5807F0A7E44
:0B0D7C0000121323E4F580052D80B762
:010D87002249
:100FD3007F0A7E001211BE1206438F248E238D22B8
:100FE3008C21E4FFFE7D487C42AB24AA23A922A8DE
:100FF300211202BC600250DF7BF47A01B2A07F327F
:101003007E00121323EB1B70011AEB4A70EEAF2420
:10101300AE23AD22AC21120D881200031211598F99
:10102300288E278D268C25120C54AF24AE23AD2297
:10103300AC21AB28AA27A926A8251202BC4005E4A7
:10104300FFFE8047AB28AA27A926A825AF24AE23F5
:10105300AD22AC21120021E4FBFA7940784112025F
:10106300BC50067F647E008022AB28AA27A926A84D
:1010730025AF24AE23AD22AC21120021E4FBFAF903
:1010830078411202BC50097F507E001211BE808944
:10109300AB28AA27A926A825AF24AE23AD22AC21CD
:1010A300120021E4FBFA798078401202BC5003025B
:0C10B300101C7F057E001211BE02101CF4
:10064300E4F52CF52BF52AF529F52FF530F531F5E1
:1006530032F533F534F535F536F537F53878397C39
:1006630000FD7BFF7A12799EFE7F1012053C120972
:10067300198E2D8F2EE532640845316008E52E640E
:100683000D452D7006E4F580020831E52E640B4517
:100693002D70400534E53470020533AF38AE37C3EF
:1006A300EF9401EE9400401DEF25E02437F8E6FCBB
:1006B30008E6FDEF25E02439F8A60408A605EF1F98
:1006C30070DD1E80DA753900753A0BE5321532702C
:1006D300021531E52E640A452D700E85312F8532C2
:1006E30030E532153270021531C3E52E940AE52D3B
:1006F30094005035AC2DAD2EE412034BC004C0055D
:10070300C006C007E4FFFE7D207C41AB2CAA2BA9C9
:100713002AA829120116D003D002D001D00012005A
:10072300258F2C8E2B8D2A8C29C3E52E940CE52D39
:1007330094005024E52E640B452D600CE53825E02C
:100743002439F8A62D08A62E0532E53270020531AC
:100753000538E53870020537E5356003020812E510
:1007630036B408004003020812900773F828287370
:1007730002078B02079A0207A90207B80207C702FA
:1007830007D60207E50207F4C2A2C2A3C2A4E53A50
:1007930025E0FFE5398067D2A2C2A3C2A4E53C25C8
:1007A300E0FFE53B8058C2A2D2A3C2A4E53E25E008
:1007B300FFE53D8049D2A2D2A3C2A4E54025E0FFD4
:1007C300E53F803AC2A2C2A3D2A4E54225E0FFE5F9
:1007D30041802BD2A2C2A3D2A4E54425E0FFE54386
:1007E300801CC2A2D2A3D2A4E54625E0FFE5458042
:1007F3000DD2A2D2A3D2A4E54825E0FFE54733FEFC
:1008030074842FF58274123EF583740193F5807F0F
:10081300647E001213230536E5367002053564083D
:1008230045356003020671F535F536020671E5308C
:10083300452F604DAF2CAE2BAD2AAC29C004C005AB
:10084300C006C007C3E5329530FDE531952FFCE4C2
:1008530012034B8F508E4F8D4E8C4D7F007E007D4B
:10086300207C41120EBCA804A905AA06AB07D00739
:10087300D006D005D00412021F8F2C8E2B8D2A8C0C
:1008830029AF2CAE2BAD2AAC29120384AD07AC06DD
:10089300EC12034BA804A905AA06AB07AF2CAE2B99
:1008A300AD2AAC29120021E4FBFA79207841120128
:1008B30016E4FBFAF9783F120025120384AD07AC66
:1008C30006EC12034BE4FBFA7920784112021FC0B5
:1008D30004C005C006C007AF2CAE2BAD2AAC29124D
:1008E3000384AD07AC06EC12034BD003D002D00156
:1008F300D0001200258F2C8E2B8D2A8C29E53430C5
:10090300E00B1203358F2C8E2B8D2A8C29AF2CAE46
:050913002BAD2AAC2908
:0109180022BC
:10091900754900754A0C7590FEAF90754B008F4C68
:10092900534CF0754B00534CF0754B00E54C64F09B
:10093900454B606A12131FAF90754B008F4C534C97
:10094900F0754B00E54C64F0454B60E0AF90754B9A
:10095900008F4CE54B7030E54C2482602424C06044
:100969001824E0600C24F0701E754900754A018056
:1009790016754900754A02800E754900754A03804B
:1009890006754900754A04E54C64F0454B60B5AFFE
:1009990090754B008F4C534CF0754B0080E9759066
:1009A900FDAF90754B008F4C534CF0754B00534C79
:1009B900F0754B00E54C64F0454B606A12131FAFAC
:1009C90090754B008F4C534CF0754B00E54C64F01F
:1009D900454B60E0AF90754B008F4CE54B7030E5AF
:1009E9004C2483602424C0601824E0600C24F07037
:1009F9001E754900754A058016754900754A0680B5
:100A09000E754900754A078006754900754A08E55B
:100A19004C64F0454B60B5AF90754B008F4C534C0F
:100A2900F0754B0080E97590FBAF90754B008F4CCA
:100A3900534CF0754B00534CF0754B00E54C64F08A
:100A4900454B606912131FAF90754B008F4C534C87
:100A5900F0754B00E54C64F0454B60E0AF90754B89
:100A6900008F4CE54B702FE54C2485602324C06032
:100A79001724E0600C24F0701D754900754A09803F
:100A890015E4F549F54A800E754900754A0A80064C
:100A9900754900754A0BE54C64F0454B60B6AF905B
:100AA900754B008F4C534CF0754B0080E97590F7EE
:100AB900AF90754B008F4C534CF0754B00534CF075
:100AC900754B00E54C64F0454B604612131FAF901F
:100AD900754B008F4C534CF0754B00E54C64F04559
:100AE9004B60E0AF90754B008F4CE54B700CE54CBB
:100AF90024197006754900754A0DE54C64F0454B9B
:100B090060D9AF90754B008F4C534CF0754B0080FA
:050B1900E9AE49AF4AFE
:010B1E0022B4
:080D88008F2C8E2B8D2A8C2983
:100D9000752E01752FF4E4FFFEFDFCAB2CAA2BA9E8
:100DA0002AA8291202BC502190129AE493F53074BB
:100DB0000193F531AF2CAE2BAD2AAC291203358F40
:100DC0002C8E2B8D2A8C29800C90129CE493F5306C
:100DD000740193F531AF2CAE2BAD2AAC29120384EC
:100DE000AB07AA067C007D0A120574EF25E0FFEE32
:100DF00033FE74842FF58274123EF583E493F5324A
:100E0000740193F5337C007D0AAF03AE02120574C2
:100E1000ED25E0FFEC33FE74842FF58274123EF56D
:100E200083E493F5347401934480F535E4FFFE7D4B
:100E3000207C41AB2CAA2BA92AA829120116120347
:100E4000847C007D0A120574ED25E0FFEC33FE740E
:100E5000842FF58274123EF583E493F53674019382
:100E6000F537E52F152FAE2E7002152E4E604CE48F
:100E7000F52DC3E52D94047480948050E5E52D1480
:100E8000600E14601314601424037016C2A2800252
:100E9000D2A2C2A3C2A4800AC2A28002D2A2D2A3BA
:100EA000C2A4E52D25E02430F808E6F5807F647EB5
:0B0EB00000121323E4F580052D80B72D
:010EBB002214
:10130F00438910758DFF758BFFD2ABD2AFD28E2272
:1011BE007C007D0A1205628E088F0912130FAE0A8B
:1011CE00AF0BE4FCFD7B407A42790FF8C31205B8F1
:1011DE004023D3E50D94E8E50C94034005E4F50CAB
:1011EE00F50DC3E50D9509E50C95085004D2A180C7
:0611FE00CDC2A180C92250
:03001B000212F4DA
:1012F400C0E0758DFF758BFF050DE50D7002050CC3
:0B130400050BE50B7002050AD0E0327B
:10001E000203F0E86480F8E933E83360110460F01D
:10002E00ED33EC337009E8FCE9FDEAFEEBFF220448
:10003E0060DED3EB9FEA9EE99DE8C2E78CF0C2F743
:10004E0095F0400CE8CCF8E9CDF9EACEFAEBCFFB0F
:10005E001203BB85D0F05804700320D5B3E80470AA
:10006E00075002B2D50203FA92D5EC0460F7E4CC45
:10007E00C0E0C398F8603B94186008400DD0E0FBD8
:10008E000203D2E4FBFAC9FC8028E830E406E4C996
:10009E00FBE4CAFCE830E305E4C9CACBFCE854072C
:1000AE006010F8C3E913F9EA13FAEB13FBEC13FC37
:1000BE00D8F130F52FC3E49CFCEF9BFFEE9AFEEDDA
:1000CE0099FDD0E0FBEF4E4D4C701222DB03020384
:1000DE00F7EC2CFCEF33FFEE33FEED33FDED30E7A6
:1000EE00EB0203D2EF2BFFEE3AFEED39FDD0E0FB33
:1000FE0050130BBB00030203FAED13FDEE13FEEFDC
:08010E0013FFEC13FC0203D205
:10011600EC4D6011E8497017ED33EC3304600DE4E3
:10012600FCFFFEFD22E933E8330470F80203F01207
:1001360003BB58046009E4CC248150062850090208
:1001460003FA2840030203F7C0E0EB4A7044B98083
:1001560006D0E0FB0203E6EF4E701CBD8008EBFF05
:10016600EAFEE9FD80EBE98DF0A4FEE5F00201FF71
:10017600E9CDF9EAFEEBFFEF89F0A4FCE5F0CE89C4
:10018600F0A42EFFE435F0CD89F0A42DFEE435F081
:100196008067EF4E7005BD80D780C3EF8BF0A4ACAF
:1001A600F0EE8BF0A42CFCE435F0F8EF8AF0A42CEA
:1001B600E5F038FCE433CB8DF0A42CFCE5F03BF8FD
:1001C600EE8AF0A42CFCE5F038F8E433CF89F0A4ED
:1001D6002CFCE5F038CF3400CE89F0A42FFFE5F0F3
:1001E6003EFEE433C98DF0A42EFEE5F039CD8AF04B
:1001F600A42FFFE5F03EFEE43DFD33D0E0FB5007C3
:100206000BBB000F0203FAEC2CFCEF33FFEE33FEC0
:06021600ED33FD0203D2EE
:10021C000203FAEC5D046005E8590470030203F074
:10022C001203BB580460F6EC4860F2EC7004FDFE5F
:10023C00FF22C860DB2481C85009C39860025006B5
:10024C000203F79850CAF582E9294B4A7005AB8234
:10025C000203E675F0007C1A7880C3EF9BEE9AEDF2
:10026C0099400DC3EF9BFFEE9AFEED99FDE842F02D
:10027C00DC23ACF0D0E0FFD0E0FED0E0FDAB822080
:10028C00E7101BEB60BAEC2CFCEF33FFEE33FEED0A
:10029C0033FD0203D2E803F830E705C0F075F00037
:1002AC00EF2FFFEE33FEED33FD40B830E7C280AAEE
:1002BC0074F8CC6480CCC86480C8F58204604FC3E9
:1002CC00EB9FF5F0EA9E42F0E99D42F0E89C45F088
:1002DC00603C501DE5825FFFE582D313CB5BCBF412
:1002EC002B5582FB50280ABA002409B9002008803B
:1002FC001DE5825BFBE582D313CF5FCFF4C3132FD5
:10030C005582FF50090EBE00050DBD00010CC3EB5C
:10031C009FF5F0EA9E42F0E99D42F0E89C45F060C2
:09032C0007CC4820E701B3EC22E4
:10033500ED33EC33600A047003BD8004ECB2E7FCD6
:010345002295
:1003460075F020800E75F010800575F0087D007E32
:10035600007F003392D530D5031205AAEC33401046
:10036600EF33FFEE33FEED33FDEC33FCD5F0ED223B
:0E037600E5F0247EA2D513CC92E7CDCEFF2277
:10038400EDD2E7CD33EC3392D524814006E4FFFE71
:10039400FDFC22FCE4CFCECDCC24E0501174FF80D0
:1003A400EDC3CC13CCCD13CDCE13CECF13CF04706D
:0703B400F030D5DE0205AABE
:100EBC008F4C8E4B8D4A8C49E4FFFE7D807C3FAB82
:100ECC004CAA4BA94AA8491202BC7009AF4CAE4BB4
:100EDC00AD4AAC4922AF4CAE4BAD4AAC49120405FD
:100EEC00FBAF50AE4FAD4EAC4D120405FFBF010829
:100EFC00E4FFFE7D807C3F22EF64046022EB6404FF
:100F0C00601DBB0127E4FFFEFDFCAB50AA4FA94EB0
:100F1C00A84D1202BC60084006E4FFFEFDFC2274E2
:100F2C00FFF550F54FF54EF54D020FCAE4F551F5AE
:100F3C0052FFFEFDFCAB4CAA4BA94AA8491202BCBD
:100F4C00504BAF50AE4FAD4EAC4D1203848E518F03
:100F5C0052AC51AD52EC12034BC8ECC8C9EDC9CA26
:100F6C00EECACBEFCBAF50AE4FAD4EAC4D12002115
:100F7C00E4FBFAF9F81202BC70A5AF4CAE4BAD4ACB
:100F8C00AC491203358F4C8E4B8D4A8C49AF4CAE0D
:100F9C004BAD4AAC49120B53AB50AA4FA94EA84DBE
:100FAC001201161210F78F508E4F8D4E8C4DE5524C
:100FBC0030E00B1203358F508E4F8D4E8C4DAF5051
:070FCC00AE4FAD4EAC4D220B
:1003BB00E9D2E7C933E833F892D5EDD2E7CD33EC88
:0703CB0033FC5002B2D52201
:1003D200EC30E7100FBF000C0EBE00080DBD00048C
:1003E2000BEB6014A2D5EB13FCED92E7FD2274FF38
:1003F200FCFDFEFF22E480F8A2D574FF13FC7D8091
:03040200E480EFA4
:10040500ED33EC33601004700FED547F700574020A
:0A04150092E0227404220422E42283
:1010BF0033DA929E35B16011377FE5FE392184898D
:1010CF003AAEC3FF3C1D955B3D6358473E75FDF03F
:1010DF003F3172183F800000C2D50203FA0203F0BD
:1010EF00BD80FA50F30203F7ED33EC330460F17B6C
:1010FF003B7AAA79B8783F120116ED33EC3392D5CB
:10110F00247B5011A2D570DB500BED44802404508A
:10111F0004A2D580CEEFFBEEFAEDF9ECF8120384C2
:10112F00EFF582F404FC120350120025C0829010D8
:10113F00BF740912042EED33CC33D0F092D525F0C5
:0A114F00A2D57001C313CC13FD22DA
:100B1F003E9248DA3ECCCCCD3F2AAAAB4000000033
:100B2F003F8000003F9837F03FB504F33FD744FCB8
:100B3F003E3172173EB172173F0515913EDE5BD9FC
:100B4F00D2008002C200EDD2E7F8CD33EC3304704F
:100B5F000BBD800592D50203FA0203F040FBD314BC
:100B6F0060F2F5F07C3FEE7A00C39496C8948B4008
:100B7F00230AC89469C8941A401A0AC89468C8947A
:100B8F001F40110AC8945AC89425400805F07A00EE
:100B9F00CDC2E7CDC0F08C538D548E558F56EA23BE
:100BAF0023C0E0242FF582E4340BF5831205DE1207
:100BBF000025ECC0E0EDC0E0EEC0E0EFC0E01205B4
:100BCF00CEA853A954AA55AB56120021D0E0FBD0A2
:100BDF00E0FAD0E0F9D0E0B2E7F812021F8C538DA3
:100BEF00548E558F56900B1F740312041FA853A9D0
:100BFF0054AA55AB56120116D0E0600F243BF58274
:100C0F00E4340BF5831205DE1200258C538D548EC0
:100C1F00558F56D0E0C3947FFDE49400FC12034B34
:100C2F007B187A727931783F120116A853A954AA0A
:100C3F0055AB5612002530000B7BD97A5B79DE78E5
:050C4F003E1201162217
:10041F00C0E0EFFBEEFAEDF9ECF8120116D0E0F5C3
:10042F00F0EFFBEEFAEDF9ECF81205CEA3A3A3A3C0
:10043F00E8C0E0E9C0E0EAC0E0EBC0E0C0F01201C4
:10044F00161205DEA3A3A3A3120025D0F0D0E0FB64
:0D045F00D0E0FAD0E0F9D0E0F8D5F0D422DA
:0300000002132EBA
:0C132E00787FE4F6D8FD758156020FD3DD
:10046C00E709F608DFFA8046E709F208DFFA803E72
:10047C0088828C83E709F0A3DFFA8032E309F6085F
:10048C00DFFA8078E309F208DFFA807088828C83C7
:10049C00E309F0A3DFFA806489828A83E0A3F6087B
:1004AC00DFFA805889828A83E0A3F208DFFA804C55
:1004BC0080D280FA80C680D4806980F2803380102C
:1004CC0080A680EA809A80A880DA80E280CA803395
:1004DC0089828A83ECFAE493A3C8C582C8CCC5830D
:1004EC00CCF0A3C8C582C8CCC583CCDFE9DEE780DD
:1004FC000D89828A83E493A3F608DFF9ECFAA9F05C
:10050C00EDFB2289828A83ECFAE0A3C8C582C8CCB1
:10051C00C583CCF0A3C8C582C8CCC583CCDFEADECA
:10052C00E880DB89828A83E493A3F208DFF980CC2C
:10053C0088F0EF60010E4E60C388F0ED2402B40425
:10054C000050B9F582EB2402B4040050AF232345CC
:06055C0082239004BC7331
:10056200EF8DF0A4A8F0CF8CF0A428CE8DF0A42EAD
:02057200FE2267
:10057400C2D5EC30E709B2D5E4C39DFDE49CFCEEA2
:1005840030E715B2D5E4C39FFFE49EFE1205EEC327
:10059400E49DFDE49CFC80031205EE30D507C3E422
:0605A4009FFFE49EFE2211
:0E05AA00C3E49FFFE49EFEE49DFDE49CFC2262
:1005B800EB9FF5F0EA9E42F0E99D42F0EC6480C8BA
:0605C80064809845F0225A
:1005CE00E493FC740193FD740293FE740393FF2273
:1005DE00E493F8740193F9740293FA740393FB2273
:1005EE00BC000BBE0029EF8DF084FFADF022E4CCF1
:1005FE00F875F008EF2FFFEE33FEEC33FCEE9DECBA
:10060E00984005FCEE9DFE0FD5F0E9E4CEFD22EDFF
:10061E00F8F5F0EE8420D21CFEADF075F008EF2F49
:10062E00FFED33FD4007985006D5F0F222C398FD3A
:05063E000FD5F0EA22D7
:00000001FF
